:100000000C942A000C94BA000C94BA000C94BA0018
:100010000C94BA000C94BA000C94BA000C94BA0078
:100020000C94BA000C94BA000C94BA000C94BA0068
:100030000C94BA000C94BA000C94BA000C94BA0058
:100040000C94BA000C94BA000C94BA000C94BA0048
:100050000C94BA0011241FBECFE5D8E0DEBFCDBF9F
:0C0060000E9436000C94A500F894FFCF1D
:10006C00CF93DF93CDB7DEB760970FB6F894DEBFB2
:10007C000FBECDBF8FEF87BB81BB8ABB8CEF84BB20
:10008C000E9460000E947F008E010F5F1F4F0E9434
:10009C00B00081110AC0F8011082CE0101960E94B5
:1000AC0070008E010F5F1F4FF2CFF80180830F5F3E
:0400BC001F4FEDCF16
:1000C00081E00E949A0088E30E949A0086E00E94E4
:1000D0009A008EE00E949A0080E80E949A0008959B
:1000E000CF93DF93EC018881882331F021960E9421
:0E00F0008E0089918111FBCFDF91CF91089591
:1000FE0080EC84BB80E280B980ED82B984E486BF57
:0E010E0086B7806886BF06B607FEFDCF08954F
:10011C0090E592BB88BB8FEC97E00197F1F700C09C
:08012C00000080E182BB089590
:1001340090E492BB88BB8FEC97E00197F1F700C085
:06014400000012BA08954C
:10014A00EC010E94BF000E94BE00CE010E94C000C6
:06015A00CE010E94BC0072
:1001600084E486BF86B7806886BF06B607FEFDCFEB
:0401700083B10895BA
:040174000C940000E7
:040178000E943400AD
:02017C000895E4
:02017E000895E2
:020180000895E0
:00000001FF
