:04000000B2EF03F068
:0D060000004845524520574520474F000057
:10060E00000E956E95CF93FF180E946E000E056E2C
:10061E00000E066E000E076E000E086E010E052609
:10062E00000E06220722082208BE2BEF03F0085008
:10063E000DE1A00E055C860E0658010E0758D8A0D7
:10064E002BEF03F02DEF03F015EF03F0A9EC03F001
:10065E00A0EC03F0000E096E000E0A6E000E0B6E7B
:10066E00000E0C6E010E0926000E0A220B220C2221
:10067E000CBE4FEF03F00C500DE1A00E095C860E80
:10068E000A58010E0B58D8A04FEF03F051EF03F0AC
:10069E0039EF03F0D00E8BEC03F0010E026E5EEC20
:1006AE0003F097EC03F05AEF03F000EF00F07BEF4E
:1006BE0003F002C0F6FF0800F5508BEC03F0022A9F
:1006CE00000E046E000E036E034A042A04BE79EF78
:1006DE0003F0E80E035C030E0458D8A079EF03F084
:1006EE007BEF03F06BEF03F002C0F6FF0800F5504E
:1006FE000009D8A485EF03F087EF03F060EF03F055
:10070E00000E8BEC03F01200016E9E9601C0C9FF25
:10071E009EA694EF03F096EF03F08FEF03F0120016
:10072E00C584C5B49DEF03F09FEF03F098EF03F07F
:10073E001200C580C5B0A6EF03F0A8EF03F0A1EF3D
:10074E0003F01200000EC76E280EC66E000EC56EA8
:10075E00310EC86E1200000EF86E060EF76E000116
:04076E0007EF03F09E
:00000001FF
